{
  "_format": "hh-sol-artifact-1",
  "contractName": "Presale",
  "sourceName": "contracts/Presale.sol",
  "abi": [
    {
      "inputs": [
        {
          "internalType": "address",
          "name": "_tokenAddress",
          "type": "address"
        },
        {
          "internalType": "uint256",
          "name": "_presalePrice",
          "type": "uint256"
        },
        {
          "internalType": "uint256",
          "name": "_totalPresaleTokens",
          "type": "uint256"
        },
        {
          "internalType": "uint256",
          "name": "_maxTokenPerUser",
          "type": "uint256"
        }
      ],
      "stateMutability": "nonpayable",
      "type": "constructor"
    },
    {
      "inputs": [
        {
          "internalType": "address",
          "name": "",
          "type": "address"
        }
      ],
      "name": "balances",
      "outputs": [
        {
          "internalType": "uint256",
          "name": "",
          "type": "uint256"
        }
      ],
      "stateMutability": "view",
      "type": "function"
    },
    {
      "inputs": [
        {
          "internalType": "uint256",
          "name": "_amount",
          "type": "uint256"
        }
      ],
      "name": "buyTokens",
      "outputs": [],
      "stateMutability": "payable",
      "type": "function"
    },
    {
      "inputs": [],
      "name": "getTotalPresaleTokensRemaining",
      "outputs": [
        {
          "internalType": "uint256",
          "name": "",
          "type": "uint256"
        }
      ],
      "stateMutability": "view",
      "type": "function"
    },
    {
      "inputs": [],
      "name": "maxTokenPerUser",
      "outputs": [
        {
          "internalType": "uint256",
          "name": "",
          "type": "uint256"
        }
      ],
      "stateMutability": "view",
      "type": "function"
    },
    {
      "inputs": [],
      "name": "owner",
      "outputs": [
        {
          "internalType": "address payable",
          "name": "",
          "type": "address"
        }
      ],
      "stateMutability": "view",
      "type": "function"
    },
    {
      "inputs": [],
      "name": "presalePrice",
      "outputs": [
        {
          "internalType": "uint256",
          "name": "",
          "type": "uint256"
        }
      ],
      "stateMutability": "view",
      "type": "function"
    },
    {
      "inputs": [],
      "name": "token",
      "outputs": [
        {
          "internalType": "contract ISTINKAT",
          "name": "",
          "type": "address"
        }
      ],
      "stateMutability": "view",
      "type": "function"
    },
    {
      "inputs": [],
      "name": "totalPresaleTokensRemaining",
      "outputs": [
        {
          "internalType": "uint256",
          "name": "",
          "type": "uint256"
        }
      ],
      "stateMutability": "view",
      "type": "function"
    },
    {
      "inputs": [],
      "name": "withdraw",
      "outputs": [],
      "stateMutability": "nonpayable",
      "type": "function"
    }
  ],
  "bytecode": "0x60806040523480156200001157600080fd5b5060405162000d8838038062000d8883398181016040528101906200003791906200017c565b336000806101000a81548173ffffffffffffffffffffffffffffffffffffffff021916908373ffffffffffffffffffffffffffffffffffffffff16021790555083600460006101000a81548173ffffffffffffffffffffffffffffffffffffffff021916908373ffffffffffffffffffffffffffffffffffffffff16021790555082600181905550816002819055508060038190555050505050620001ee565b600080fd5b600073ffffffffffffffffffffffffffffffffffffffff82169050919050565b60006200010982620000dc565b9050919050565b6200011b81620000fc565b81146200012757600080fd5b50565b6000815190506200013b8162000110565b92915050565b6000819050919050565b620001568162000141565b81146200016257600080fd5b50565b60008151905062000176816200014b565b92915050565b60008060008060808587031215620001995762000198620000d7565b5b6000620001a9878288016200012a565b9450506020620001bc8782880162000165565b9350506040620001cf8782880162000165565b9250506060620001e28782880162000165565b91505092959194509250565b610b8a80620001fe6000396000f3fe6080604052600436106100855760003560e01c806350c507101161005957806350c50710146101255780638da5cb5b14610150578063b670a49e1461017b578063f2ac49f2146101a6578063fc0c546a146101d157610085565b80620e7fa81461008a57806327e235e3146100b55780633610724e146100f25780633ccfd60b1461010e575b600080fd5b34801561009657600080fd5b5061009f6101fc565b6040516100ac91906105cb565b60405180910390f35b3480156100c157600080fd5b506100dc60048036038101906100d79190610649565b610202565b6040516100e991906105cb565b60405180910390f35b61010c600480360381019061010791906106a2565b61021a565b005b34801561011a57600080fd5b5061012361045b565b005b34801561013157600080fd5b5061013a610552565b60405161014791906105cb565b60405180910390f35b34801561015c57600080fd5b50610165610558565b60405161017291906106f0565b60405180910390f35b34801561018757600080fd5b5061019061057c565b60405161019d91906105cb565b60405180910390f35b3480156101b257600080fd5b506101bb610586565b6040516101c891906105cb565b60405180910390f35b3480156101dd57600080fd5b506101e661058c565b6040516101f3919061076a565b60405180910390f35b60015481565b60056020528060005260406000206000915090505481565b6001548161022891906107b4565b3414610269576040517f08c379a00000000000000000000000000000000000000000000000000000000081526004016102609061089f565b60405180910390fd5b60035481600560003373ffffffffffffffffffffffffffffffffffffffff1673ffffffffffffffffffffffffffffffffffffffff168152602001908152602001600020546102b791906108bf565b11156102f8576040517f08c379a00000000000000000000000000000000000000000000000000000000081526004016102ef90610965565b60405180910390fd5b6000816002546103089190610985565b11610348576040517f08c379a000000000000000000000000000000000000000000000000000000000815260040161033f90610a05565b60405180910390fd5b806002600082825461035a9190610985565b9250508190555080600560003373ffffffffffffffffffffffffffffffffffffffff1673ffffffffffffffffffffffffffffffffffffffff16815260200190815260200160002060008282546103b091906108bf565b92505081905550600460009054906101000a900473ffffffffffffffffffffffffffffffffffffffff1673ffffffffffffffffffffffffffffffffffffffff1663a9059cbb33836040518363ffffffff1660e01b8152600401610414929190610a34565b6020604051808303816000875af1158015610433573d6000803e3d6000fd5b505050506040513d601f19601f820116820180604052508101906104579190610a95565b5050565b60008054906101000a900473ffffffffffffffffffffffffffffffffffffffff1673ffffffffffffffffffffffffffffffffffffffff163373ffffffffffffffffffffffffffffffffffffffff16146104e9576040517f08c379a00000000000000000000000000000000000000000000000000000000081526004016104e090610b34565b60405180910390fd5b60008054906101000a900473ffffffffffffffffffffffffffffffffffffffff1673ffffffffffffffffffffffffffffffffffffffff166108fc479081150290604051600060405180830381858888f1935050505015801561054f573d6000803e3d6000fd5b50565b60035481565b60008054906101000a900473ffffffffffffffffffffffffffffffffffffffff1681565b6000600254905090565b60025481565b600460009054906101000a900473ffffffffffffffffffffffffffffffffffffffff1681565b6000819050919050565b6105c5816105b2565b82525050565b60006020820190506105e060008301846105bc565b92915050565b600080fd5b600073ffffffffffffffffffffffffffffffffffffffff82169050919050565b6000610616826105eb565b9050919050565b6106268161060b565b811461063157600080fd5b50565b6000813590506106438161061d565b92915050565b60006020828403121561065f5761065e6105e6565b5b600061066d84828501610634565b91505092915050565b61067f816105b2565b811461068a57600080fd5b50565b60008135905061069c81610676565b92915050565b6000602082840312156106b8576106b76105e6565b5b60006106c68482850161068d565b91505092915050565b60006106da826105eb565b9050919050565b6106ea816106cf565b82525050565b600060208201905061070560008301846106e1565b92915050565b6000819050919050565b600061073061072b610726846105eb565b61070b565b6105eb565b9050919050565b600061074282610715565b9050919050565b600061075482610737565b9050919050565b61076481610749565b82525050565b600060208201905061077f600083018461075b565b92915050565b7f4e487b7100000000000000000000000000000000000000000000000000000000600052601160045260246000fd5b60006107bf826105b2565b91506107ca836105b2565b92508282026107d8816105b2565b915082820484148315176107ef576107ee610785565b5b5092915050565b600082825260208201905092915050565b7f416d6f756e74206d75737420626520657175616c20746f207468652070726f6460008201527f756374206f662074686520616d6f756e74206f6620746f6b656e7320616e642060208201527f7468652070726573616c65207072696365000000000000000000000000000000604082015250565b60006108896051836107f6565b915061089482610807565b606082019050919050565b600060208201905081810360008301526108b88161087c565b9050919050565b60006108ca826105b2565b91506108d5836105b2565b92508282019050808211156108ed576108ec610785565b5b92915050565b7f45786365656465642074686520746f74616c20616d6f756e74206f6620746f6b60008201527f656e7320666f722073616c650000000000000000000000000000000000000000602082015250565b600061094f602c836107f6565b915061095a826108f3565b604082019050919050565b6000602082019050818103600083015261097e81610942565b9050919050565b6000610990826105b2565b915061099b836105b2565b92508282039050818111156109b3576109b2610785565b5b92915050565b7f4e6f7420656e6f75676820746f6b656e732072656d61696e696e670000000000600082015250565b60006109ef601b836107f6565b91506109fa826109b9565b602082019050919050565b60006020820190508181036000830152610a1e816109e2565b9050919050565b610a2e8161060b565b82525050565b6000604082019050610a496000830185610a25565b610a5660208301846105bc565b9392505050565b60008115159050919050565b610a7281610a5d565b8114610a7d57600080fd5b50565b600081519050610a8f81610a69565b92915050565b600060208284031215610aab57610aaa6105e6565b5b6000610ab984828501610a80565b91505092915050565b7f4f6e6c7920746865206f776e65722063616e2077697468647261772066756e6460008201527f7300000000000000000000000000000000000000000000000000000000000000602082015250565b6000610b1e6021836107f6565b9150610b2982610ac2565b604082019050919050565b60006020820190508181036000830152610b4d81610b11565b905091905056fea2646970667358221220c571d51c90dc21c8ea034ee001506309d9f62ab271fba9403f4913a4f71ea49d64736f6c63430008180033",
  "linkReferences": {},
  "deployedLinkReferences": {}
}