{
  "_format": "hh-sol-artifact-1",
  "contractName": "Presale",
  "sourceName": "contracts/Presale.sol",
  "abi": [
    {
      "inputs": [
        {
          "internalType": "address",
          "name": "_tokenAddress",
          "type": "address"
        }
      ],
      "stateMutability": "nonpayable",
      "type": "constructor"
    },
    {
      "inputs": [
        {
          "internalType": "address",
          "name": "",
          "type": "address"
        }
      ],
      "name": "balances",
      "outputs": [
        {
          "internalType": "uint256",
          "name": "",
          "type": "uint256"
        }
      ],
      "stateMutability": "view",
      "type": "function"
    },
    {
      "inputs": [
        {
          "internalType": "uint256",
          "name": "_amount",
          "type": "uint256"
        }
      ],
      "name": "buyTokens",
      "outputs": [],
      "stateMutability": "payable",
      "type": "function"
    },
    {
      "inputs": [
        {
          "internalType": "address",
          "name": "_address",
          "type": "address"
        }
      ],
      "name": "getBalance",
      "outputs": [
        {
          "internalType": "uint256",
          "name": "",
          "type": "uint256"
        }
      ],
      "stateMutability": "view",
      "type": "function"
    },
    {
      "inputs": [],
      "name": "getTotalPresaleTokensRemaining",
      "outputs": [
        {
          "internalType": "uint256",
          "name": "",
          "type": "uint256"
        }
      ],
      "stateMutability": "view",
      "type": "function"
    },
    {
      "inputs": [],
      "name": "maxTokenPerUser",
      "outputs": [
        {
          "internalType": "uint256",
          "name": "",
          "type": "uint256"
        }
      ],
      "stateMutability": "view",
      "type": "function"
    },
    {
      "inputs": [],
      "name": "owner",
      "outputs": [
        {
          "internalType": "address payable",
          "name": "",
          "type": "address"
        }
      ],
      "stateMutability": "view",
      "type": "function"
    },
    {
      "inputs": [],
      "name": "presalePrice",
      "outputs": [
        {
          "internalType": "uint256",
          "name": "",
          "type": "uint256"
        }
      ],
      "stateMutability": "view",
      "type": "function"
    },
    {
      "inputs": [],
      "name": "token",
      "outputs": [
        {
          "internalType": "contract ISTINKAT",
          "name": "",
          "type": "address"
        }
      ],
      "stateMutability": "view",
      "type": "function"
    },
    {
      "inputs": [],
      "name": "totalPresaleTokensRemaining",
      "outputs": [
        {
          "internalType": "uint256",
          "name": "",
          "type": "uint256"
        }
      ],
      "stateMutability": "view",
      "type": "function"
    },
    {
      "inputs": [],
      "name": "withdraw",
      "outputs": [],
      "stateMutability": "nonpayable",
      "type": "function"
    }
  ],
  "bytecode": "0x608060405234801561001057600080fd5b50604051610da0380380610da083398181016040528101906100329190610149565b336000806101000a81548173ffffffffffffffffffffffffffffffffffffffff021916908373ffffffffffffffffffffffffffffffffffffffff16021790555080600460006101000a81548173ffffffffffffffffffffffffffffffffffffffff021916908373ffffffffffffffffffffffffffffffffffffffff160217905550622191c06001819055506a03a3bc7a5ab8e25e0000006002819055506929ed99fc670a2fc0000060038190555050610176565b600080fd5b600073ffffffffffffffffffffffffffffffffffffffff82169050919050565b6000610116826100eb565b9050919050565b6101268161010b565b811461013157600080fd5b50565b6000815190506101438161011d565b92915050565b60006020828403121561015f5761015e6100e6565b5b600061016d84828501610134565b91505092915050565b610c1b806101856000396000f3fe6080604052600436106100905760003560e01c80638da5cb5b116100595780638da5cb5b1461015b578063b670a49e14610186578063f2ac49f2146101b1578063f8b2cb4f146101dc578063fc0c546a1461021957610090565b80620e7fa81461009557806327e235e3146100c05780633610724e146100fd5780633ccfd60b1461011957806350c5071014610130575b600080fd5b3480156100a157600080fd5b506100aa610244565b6040516100b7919061065c565b60405180910390f35b3480156100cc57600080fd5b506100e760048036038101906100e291906106da565b61024a565b6040516100f4919061065c565b60405180910390f35b61011760048036038101906101129190610733565b610262565b005b34801561012557600080fd5b5061012e6104a3565b005b34801561013c57600080fd5b5061014561059a565b604051610152919061065c565b60405180910390f35b34801561016757600080fd5b506101706105a0565b60405161017d9190610781565b60405180910390f35b34801561019257600080fd5b5061019b6105c4565b6040516101a8919061065c565b60405180910390f35b3480156101bd57600080fd5b506101c66105ce565b6040516101d3919061065c565b60405180910390f35b3480156101e857600080fd5b5061020360048036038101906101fe91906106da565b6105d4565b604051610210919061065c565b60405180910390f35b34801561022557600080fd5b5061022e61061d565b60405161023b91906107fb565b60405180910390f35b60015481565b60056020528060005260406000206000915090505481565b600154816102709190610845565b34146102b1576040517f08c379a00000000000000000000000000000000000000000000000000000000081526004016102a890610930565b60405180910390fd5b60035481600560003373ffffffffffffffffffffffffffffffffffffffff1673ffffffffffffffffffffffffffffffffffffffff168152602001908152602001600020546102ff9190610950565b1115610340576040517f08c379a0000000000000000000000000000000000000000000000000000000008152600401610337906109f6565b60405180910390fd5b6000816002546103509190610a16565b11610390576040517f08c379a000000000000000000000000000000000000000000000000000000000815260040161038790610a96565b60405180910390fd5b80600260008282546103a29190610a16565b9250508190555080600560003373ffffffffffffffffffffffffffffffffffffffff1673ffffffffffffffffffffffffffffffffffffffff16815260200190815260200160002060008282546103f89190610950565b92505081905550600460009054906101000a900473ffffffffffffffffffffffffffffffffffffffff1673ffffffffffffffffffffffffffffffffffffffff1663a9059cbb33836040518363ffffffff1660e01b815260040161045c929190610ac5565b6020604051808303816000875af115801561047b573d6000803e3d6000fd5b505050506040513d601f19601f8201168201806040525081019061049f9190610b26565b5050565b60008054906101000a900473ffffffffffffffffffffffffffffffffffffffff1673ffffffffffffffffffffffffffffffffffffffff163373ffffffffffffffffffffffffffffffffffffffff1614610531576040517f08c379a000000000000000000000000000000000000000000000000000000000815260040161052890610bc5565b60405180910390fd5b60008054906101000a900473ffffffffffffffffffffffffffffffffffffffff1673ffffffffffffffffffffffffffffffffffffffff166108fc479081150290604051600060405180830381858888f19350505050158015610597573d6000803e3d6000fd5b50565b60035481565b60008054906101000a900473ffffffffffffffffffffffffffffffffffffffff1681565b6000600254905090565b60025481565b6000600560008373ffffffffffffffffffffffffffffffffffffffff1673ffffffffffffffffffffffffffffffffffffffff168152602001908152602001600020549050919050565b600460009054906101000a900473ffffffffffffffffffffffffffffffffffffffff1681565b6000819050919050565b61065681610643565b82525050565b6000602082019050610671600083018461064d565b92915050565b600080fd5b600073ffffffffffffffffffffffffffffffffffffffff82169050919050565b60006106a78261067c565b9050919050565b6106b78161069c565b81146106c257600080fd5b50565b6000813590506106d4816106ae565b92915050565b6000602082840312156106f0576106ef610677565b5b60006106fe848285016106c5565b91505092915050565b61071081610643565b811461071b57600080fd5b50565b60008135905061072d81610707565b92915050565b60006020828403121561074957610748610677565b5b60006107578482850161071e565b91505092915050565b600061076b8261067c565b9050919050565b61077b81610760565b82525050565b60006020820190506107966000830184610772565b92915050565b6000819050919050565b60006107c16107bc6107b78461067c565b61079c565b61067c565b9050919050565b60006107d3826107a6565b9050919050565b60006107e5826107c8565b9050919050565b6107f5816107da565b82525050565b600060208201905061081060008301846107ec565b92915050565b7f4e487b7100000000000000000000000000000000000000000000000000000000600052601160045260246000fd5b600061085082610643565b915061085b83610643565b925082820261086981610643565b915082820484148315176108805761087f610816565b5b5092915050565b600082825260208201905092915050565b7f416d6f756e74206d75737420626520657175616c20746f207468652070726f6460008201527f756374206f662074686520616d6f756e74206f6620746f6b656e7320616e642060208201527f7468652070726573616c65207072696365000000000000000000000000000000604082015250565b600061091a605183610887565b915061092582610898565b606082019050919050565b600060208201905081810360008301526109498161090d565b9050919050565b600061095b82610643565b915061096683610643565b925082820190508082111561097e5761097d610816565b5b92915050565b7f45786365656465642074686520746f74616c20616d6f756e74206f6620746f6b60008201527f656e7320666f722073616c650000000000000000000000000000000000000000602082015250565b60006109e0602c83610887565b91506109eb82610984565b604082019050919050565b60006020820190508181036000830152610a0f816109d3565b9050919050565b6000610a2182610643565b9150610a2c83610643565b9250828203905081811115610a4457610a43610816565b5b92915050565b7f4e6f7420656e6f75676820746f6b656e732072656d61696e696e670000000000600082015250565b6000610a80601b83610887565b9150610a8b82610a4a565b602082019050919050565b60006020820190508181036000830152610aaf81610a73565b9050919050565b610abf8161069c565b82525050565b6000604082019050610ada6000830185610ab6565b610ae7602083018461064d565b9392505050565b60008115159050919050565b610b0381610aee565b8114610b0e57600080fd5b50565b600081519050610b2081610afa565b92915050565b600060208284031215610b3c57610b3b610677565b5b6000610b4a84828501610b11565b91505092915050565b7f4f6e6c7920746865206f776e65722063616e2077697468647261772066756e6460008201527f7300000000000000000000000000000000000000000000000000000000000000602082015250565b6000610baf602183610887565b9150610bba82610b53565b604082019050919050565b60006020820190508181036000830152610bde81610ba2565b905091905056fea2646970667358221220e98bdf03211a1c1608ac622715840c8c971ee74733ee77785436c9435781a2cd64736f6c63430008180033",
  "linkReferences": {},
  "deployedLinkReferences": {}
}