{
  "_format": "hh-sol-artifact-1",
  "contractName": "ERC20",
  "sourceName": "contracts/Stinkat.sol",
  "abi": [
    {
      "inputs": [
        {
          "internalType": "string",
          "name": "name_",
          "type": "string"
        },
        {
          "internalType": "string",
          "name": "symbol_",
          "type": "string"
        }
      ],
      "stateMutability": "nonpayable",
      "type": "constructor"
    },
    {
      "anonymous": false,
      "inputs": [
        {
          "indexed": true,
          "internalType": "address",
          "name": "owner",
          "type": "address"
        },
        {
          "indexed": true,
          "internalType": "address",
          "name": "spender",
          "type": "address"
        },
        {
          "indexed": false,
          "internalType": "uint256",
          "name": "value",
          "type": "uint256"
        }
      ],
      "name": "Approval",
      "type": "event"
    },
    {
      "anonymous": false,
      "inputs": [
        {
          "indexed": true,
          "internalType": "address",
          "name": "from",
          "type": "address"
        },
        {
          "indexed": true,
          "internalType": "address",
          "name": "to",
          "type": "address"
        },
        {
          "indexed": false,
          "internalType": "uint256",
          "name": "value",
          "type": "uint256"
        }
      ],
      "name": "Transfer",
      "type": "event"
    },
    {
      "inputs": [
        {
          "internalType": "address",
          "name": "owner",
          "type": "address"
        },
        {
          "internalType": "address",
          "name": "spender",
          "type": "address"
        }
      ],
      "name": "allowance",
      "outputs": [
        {
          "internalType": "uint256",
          "name": "",
          "type": "uint256"
        }
      ],
      "stateMutability": "view",
      "type": "function"
    },
    {
      "inputs": [
        {
          "internalType": "address",
          "name": "spender",
          "type": "address"
        },
        {
          "internalType": "uint256",
          "name": "amount",
          "type": "uint256"
        }
      ],
      "name": "approve",
      "outputs": [
        {
          "internalType": "bool",
          "name": "",
          "type": "bool"
        }
      ],
      "stateMutability": "nonpayable",
      "type": "function"
    },
    {
      "inputs": [
        {
          "internalType": "address",
          "name": "account",
          "type": "address"
        }
      ],
      "name": "balanceOf",
      "outputs": [
        {
          "internalType": "uint256",
          "name": "",
          "type": "uint256"
        }
      ],
      "stateMutability": "view",
      "type": "function"
    },
    {
      "inputs": [],
      "name": "cancleLimit",
      "outputs": [],
      "stateMutability": "nonpayable",
      "type": "function"
    },
    {
      "inputs": [],
      "name": "decimals",
      "outputs": [
        {
          "internalType": "uint8",
          "name": "",
          "type": "uint8"
        }
      ],
      "stateMutability": "view",
      "type": "function"
    },
    {
      "inputs": [
        {
          "internalType": "address",
          "name": "spender",
          "type": "address"
        },
        {
          "internalType": "uint256",
          "name": "subtractedValue",
          "type": "uint256"
        }
      ],
      "name": "decreaseAllowance",
      "outputs": [
        {
          "internalType": "bool",
          "name": "",
          "type": "bool"
        }
      ],
      "stateMutability": "nonpayable",
      "type": "function"
    },
    {
      "inputs": [],
      "name": "dev",
      "outputs": [
        {
          "internalType": "address",
          "name": "",
          "type": "address"
        }
      ],
      "stateMutability": "view",
      "type": "function"
    },
    {
      "inputs": [
        {
          "internalType": "address",
          "name": "spender",
          "type": "address"
        },
        {
          "internalType": "uint256",
          "name": "addedValue",
          "type": "uint256"
        }
      ],
      "name": "increaseAllowance",
      "outputs": [
        {
          "internalType": "bool",
          "name": "",
          "type": "bool"
        }
      ],
      "stateMutability": "nonpayable",
      "type": "function"
    },
    {
      "inputs": [],
      "name": "isLimit",
      "outputs": [
        {
          "internalType": "bool",
          "name": "",
          "type": "bool"
        }
      ],
      "stateMutability": "view",
      "type": "function"
    },
    {
      "inputs": [],
      "name": "name",
      "outputs": [
        {
          "internalType": "string",
          "name": "",
          "type": "string"
        }
      ],
      "stateMutability": "view",
      "type": "function"
    },
    {
      "inputs": [],
      "name": "symbol",
      "outputs": [
        {
          "internalType": "string",
          "name": "",
          "type": "string"
        }
      ],
      "stateMutability": "view",
      "type": "function"
    },
    {
      "inputs": [],
      "name": "totalSupply",
      "outputs": [
        {
          "internalType": "uint256",
          "name": "",
          "type": "uint256"
        }
      ],
      "stateMutability": "view",
      "type": "function"
    },
    {
      "inputs": [
        {
          "internalType": "address",
          "name": "to",
          "type": "address"
        },
        {
          "internalType": "uint256",
          "name": "amount",
          "type": "uint256"
        }
      ],
      "name": "transfer",
      "outputs": [
        {
          "internalType": "bool",
          "name": "",
          "type": "bool"
        }
      ],
      "stateMutability": "nonpayable",
      "type": "function"
    },
    {
      "inputs": [
        {
          "internalType": "address",
          "name": "from",
          "type": "address"
        },
        {
          "internalType": "address",
          "name": "to",
          "type": "address"
        },
        {
          "internalType": "uint256",
          "name": "amount",
          "type": "uint256"
        }
      ],
      "name": "transferFrom",
      "outputs": [
        {
          "internalType": "bool",
          "name": "",
          "type": "bool"
        }
      ],
      "stateMutability": "nonpayable",
      "type": "function"
    }
  ],
  "bytecode": "0x60806040526001600060146101000a81548160ff0219169083151502179055503480156200002c57600080fd5b5060405162001a2c38038062001a2c833981810160405281019062000052919062000251565b816004908162000063919062000521565b50806005908162000075919062000521565b50336000806101000a81548173ffffffffffffffffffffffffffffffffffffffff021916908373ffffffffffffffffffffffffffffffffffffffff160217905550505062000608565b6000604051905090565b600080fd5b600080fd5b600080fd5b600080fd5b6000601f19601f8301169050919050565b7f4e487b7100000000000000000000000000000000000000000000000000000000600052604160045260246000fd5b6200012782620000dc565b810181811067ffffffffffffffff82111715620001495762000148620000ed565b5b80604052505050565b60006200015e620000be565b90506200016c82826200011c565b919050565b600067ffffffffffffffff8211156200018f576200018e620000ed565b5b6200019a82620000dc565b9050602081019050919050565b60005b83811015620001c7578082015181840152602081019050620001aa565b60008484015250505050565b6000620001ea620001e48462000171565b62000152565b905082815260208101848484011115620002095762000208620000d7565b5b62000216848285620001a7565b509392505050565b600082601f830112620002365762000235620000d2565b5b815162000248848260208601620001d3565b91505092915050565b600080604083850312156200026b576200026a620000c8565b5b600083015167ffffffffffffffff8111156200028c576200028b620000cd565b5b6200029a858286016200021e565b925050602083015167ffffffffffffffff811115620002be57620002bd620000cd565b5b620002cc858286016200021e565b9150509250929050565b600081519050919050565b7f4e487b7100000000000000000000000000000000000000000000000000000000600052602260045260246000fd5b600060028204905060018216806200032957607f821691505b6020821081036200033f576200033e620002e1565b5b50919050565b60008190508160005260206000209050919050565b60006020601f8301049050919050565b600082821b905092915050565b600060088302620003a97fffffffffffffffffffffffffffffffffffffffffffffffffffffffffffffffff826200036a565b620003b586836200036a565b95508019841693508086168417925050509392505050565b6000819050919050565b6000819050919050565b600062000402620003fc620003f684620003cd565b620003d7565b620003cd565b9050919050565b6000819050919050565b6200041e83620003e1565b620004366200042d8262000409565b84845462000377565b825550505050565b600090565b6200044d6200043e565b6200045a81848462000413565b505050565b5b8181101562000482576200047660008262000443565b60018101905062000460565b5050565b601f821115620004d1576200049b8162000345565b620004a6846200035a565b81016020851015620004b6578190505b620004ce620004c5856200035a565b8301826200045f565b50505b505050565b600082821c905092915050565b6000620004f660001984600802620004d6565b1980831691505092915050565b6000620005118383620004e3565b9150826002028217905092915050565b6200052c82620002d6565b67ffffffffffffffff811115620005485762000547620000ed565b5b62000554825462000310565b6200056182828562000486565b600060209050601f83116001811462000599576000841562000584578287015190505b62000590858262000503565b86555062000600565b601f198416620005a98662000345565b60005b82811015620005d357848901518255600182019150602085019450602081019050620005ac565b86831015620005f35784890151620005ef601f891682620004e3565b8355505b6001600288020188555050505b505050505050565b61141480620006186000396000f3fe608060405234801561001057600080fd5b50600436106100ea5760003560e01c8063395093511161008c57806395d89b411161006657806395d89b411461024f578063a457c2d71461026d578063a9059cbb1461029d578063dd62ed3e146102cd576100ea565b806339509351146101d157806370a082311461020157806391cca3db14610231576100ea565b806323b872dd116100c857806323b872dd1461015b578063275780551461018b5780632f685022146101a9578063313ce567146101b3576100ea565b806306fdde03146100ef578063095ea7b31461010d57806318160ddd1461013d575b600080fd5b6100f76102fd565b6040516101049190610cc7565b60405180910390f35b61012760048036038101906101229190610d82565b61038f565b6040516101349190610ddd565b60405180910390f35b6101456103b2565b6040516101529190610e07565b60405180910390f35b61017560048036038101906101709190610e22565b6103bc565b6040516101829190610ddd565b60405180910390f35b6101936103eb565b6040516101a09190610ddd565b60405180910390f35b6101b16103fe565b005b6101bb610472565b6040516101c89190610e91565b60405180910390f35b6101eb60048036038101906101e69190610d82565b61047b565b6040516101f89190610ddd565b60405180910390f35b61021b60048036038101906102169190610eac565b6104b2565b6040516102289190610e07565b60405180910390f35b6102396104fb565b6040516102469190610ee8565b60405180910390f35b61025761051f565b6040516102649190610cc7565b60405180910390f35b61028760048036038101906102829190610d82565b6105b1565b6040516102949190610ddd565b60405180910390f35b6102b760048036038101906102b29190610d82565b610628565b6040516102c49190610ddd565b60405180910390f35b6102e760048036038101906102e29190610f03565b61064b565b6040516102f49190610e07565b60405180910390f35b60606004805461030c90610f72565b80601f016020809104026020016040519081016040528092919081815260200182805461033890610f72565b80156103855780601f1061035a57610100808354040283529160200191610385565b820191906000526020600020905b81548152906001019060200180831161036857829003601f168201915b5050505050905090565b60008061039a6106d2565b90506103a78185856106da565b600191505092915050565b6000600354905090565b6000806103c76106d2565b90506103d48582856108a3565b6103df85858561092f565b60019150509392505050565b600060149054906101000a900460ff1681565b60008054906101000a900473ffffffffffffffffffffffffffffffffffffffff1673ffffffffffffffffffffffffffffffffffffffff163373ffffffffffffffffffffffffffffffffffffffff161461045657600080fd5b60008060146101000a81548160ff021916908315150217905550565b60006012905090565b6000806104866106d2565b90506104a7818585610498858961064b565b6104a29190610fd2565b6106da565b600191505092915050565b6000600160008373ffffffffffffffffffffffffffffffffffffffff1673ffffffffffffffffffffffffffffffffffffffff168152602001908152602001600020549050919050565b60008054906101000a900473ffffffffffffffffffffffffffffffffffffffff1681565b60606005805461052e90610f72565b80601f016020809104026020016040519081016040528092919081815260200182805461055a90610f72565b80156105a75780601f1061057c576101008083540402835291602001916105a7565b820191906000526020600020905b81548152906001019060200180831161058a57829003601f168201915b5050505050905090565b6000806105bc6106d2565b905060006105ca828661064b565b90508381101561060f576040517f08c379a000000000000000000000000000000000000000000000000000000000815260040161060690611078565b60405180910390fd5b61061c82868684036106da565b60019250505092915050565b6000806106336106d2565b905061064081858561092f565b600191505092915050565b6000600260008473ffffffffffffffffffffffffffffffffffffffff1673ffffffffffffffffffffffffffffffffffffffff16815260200190815260200160002060008373ffffffffffffffffffffffffffffffffffffffff1673ffffffffffffffffffffffffffffffffffffffff16815260200190815260200160002054905092915050565b600033905090565b600073ffffffffffffffffffffffffffffffffffffffff168373ffffffffffffffffffffffffffffffffffffffff1603610749576040517f08c379a00000000000000000000000000000000000000000000000000000000081526004016107409061110a565b60405180910390fd5b600073ffffffffffffffffffffffffffffffffffffffff168273ffffffffffffffffffffffffffffffffffffffff16036107b8576040517f08c379a00000000000000000000000000000000000000000000000000000000081526004016107af9061119c565b60405180910390fd5b80600260008573ffffffffffffffffffffffffffffffffffffffff1673ffffffffffffffffffffffffffffffffffffffff16815260200190815260200160002060008473ffffffffffffffffffffffffffffffffffffffff1673ffffffffffffffffffffffffffffffffffffffff168152602001908152602001600020819055508173ffffffffffffffffffffffffffffffffffffffff168373ffffffffffffffffffffffffffffffffffffffff167f8c5be1e5ebec7d5bd14f71427d1e84f3dd0314c0f7b2291e5b200ac8c7c3b925836040516108969190610e07565b60405180910390a3505050565b60006108af848461064b565b90507fffffffffffffffffffffffffffffffffffffffffffffffffffffffffffffffff8114610929578181101561091b576040517f08c379a000000000000000000000000000000000000000000000000000000000815260040161091290611208565b60405180910390fd5b61092884848484036106da565b5b50505050565b600073ffffffffffffffffffffffffffffffffffffffff168373ffffffffffffffffffffffffffffffffffffffff160361099e576040517f08c379a00000000000000000000000000000000000000000000000000000000081526004016109959061129a565b60405180910390fd5b600073ffffffffffffffffffffffffffffffffffffffff168273ffffffffffffffffffffffffffffffffffffffff1603610a0d576040517f08c379a0000000000000000000000000000000000000000000000000000000008152600401610a049061132c565b60405180910390fd5b600060149054906101000a900460ff168015610a75575060008054906101000a900473ffffffffffffffffffffffffffffffffffffffff1673ffffffffffffffffffffffffffffffffffffffff168373ffffffffffffffffffffffffffffffffffffffff1614155b15610a9257692a5a058fc295ed000000811115610a9157600080fd5b5b610a9d838383610c2d565b6000600160008573ffffffffffffffffffffffffffffffffffffffff1673ffffffffffffffffffffffffffffffffffffffff16815260200190815260200160002054905081811015610b24576040517f08c379a0000000000000000000000000000000000000000000000000000000008152600401610b1b906113be565b60405180910390fd5b818103600160008673ffffffffffffffffffffffffffffffffffffffff1673ffffffffffffffffffffffffffffffffffffffff1681526020019081526020016000208190555081600160008573ffffffffffffffffffffffffffffffffffffffff1673ffffffffffffffffffffffffffffffffffffffff168152602001908152602001600020600082825401925050819055508273ffffffffffffffffffffffffffffffffffffffff168473ffffffffffffffffffffffffffffffffffffffff167fddf252ad1be2c89b69c2b068fc378daa952ba7f163c4a11628f55a4df523b3ef84604051610c149190610e07565b60405180910390a3610c27848484610c32565b50505050565b505050565b505050565b600081519050919050565b600082825260208201905092915050565b60005b83811015610c71578082015181840152602081019050610c56565b60008484015250505050565b6000601f19601f8301169050919050565b6000610c9982610c37565b610ca38185610c42565b9350610cb3818560208601610c53565b610cbc81610c7d565b840191505092915050565b60006020820190508181036000830152610ce18184610c8e565b905092915050565b600080fd5b600073ffffffffffffffffffffffffffffffffffffffff82169050919050565b6000610d1982610cee565b9050919050565b610d2981610d0e565b8114610d3457600080fd5b50565b600081359050610d4681610d20565b92915050565b6000819050919050565b610d5f81610d4c565b8114610d6a57600080fd5b50565b600081359050610d7c81610d56565b92915050565b60008060408385031215610d9957610d98610ce9565b5b6000610da785828601610d37565b9250506020610db885828601610d6d565b9150509250929050565b60008115159050919050565b610dd781610dc2565b82525050565b6000602082019050610df26000830184610dce565b92915050565b610e0181610d4c565b82525050565b6000602082019050610e1c6000830184610df8565b92915050565b600080600060608486031215610e3b57610e3a610ce9565b5b6000610e4986828701610d37565b9350506020610e5a86828701610d37565b9250506040610e6b86828701610d6d565b9150509250925092565b600060ff82169050919050565b610e8b81610e75565b82525050565b6000602082019050610ea66000830184610e82565b92915050565b600060208284031215610ec257610ec1610ce9565b5b6000610ed084828501610d37565b91505092915050565b610ee281610d0e565b82525050565b6000602082019050610efd6000830184610ed9565b92915050565b60008060408385031215610f1a57610f19610ce9565b5b6000610f2885828601610d37565b9250506020610f3985828601610d37565b9150509250929050565b7f4e487b7100000000000000000000000000000000000000000000000000000000600052602260045260246000fd5b60006002820490506001821680610f8a57607f821691505b602082108103610f9d57610f9c610f43565b5b50919050565b7f4e487b7100000000000000000000000000000000000000000000000000000000600052601160045260246000fd5b6000610fdd82610d4c565b9150610fe883610d4c565b925082820190508082111561100057610fff610fa3565b5b92915050565b7f45524332303a2064656372656173656420616c6c6f77616e63652062656c6f7760008201527f207a65726f000000000000000000000000000000000000000000000000000000602082015250565b6000611062602583610c42565b915061106d82611006565b604082019050919050565b6000602082019050818103600083015261109181611055565b9050919050565b7f45524332303a20617070726f76652066726f6d20746865207a65726f2061646460008201527f7265737300000000000000000000000000000000000000000000000000000000602082015250565b60006110f4602483610c42565b91506110ff82611098565b604082019050919050565b60006020820190508181036000830152611123816110e7565b9050919050565b7f45524332303a20617070726f766520746f20746865207a65726f20616464726560008201527f7373000000000000000000000000000000000000000000000000000000000000602082015250565b6000611186602283610c42565b91506111918261112a565b604082019050919050565b600060208201905081810360008301526111b581611179565b9050919050565b7f45524332303a20696e73756666696369656e7420616c6c6f77616e6365000000600082015250565b60006111f2601d83610c42565b91506111fd826111bc565b602082019050919050565b60006020820190508181036000830152611221816111e5565b9050919050565b7f45524332303a207472616e736665722066726f6d20746865207a65726f20616460008201527f6472657373000000000000000000000000000000000000000000000000000000602082015250565b6000611284602583610c42565b915061128f82611228565b604082019050919050565b600060208201905081810360008301526112b381611277565b9050919050565b7f45524332303a207472616e7366657220746f20746865207a65726f206164647260008201527f6573730000000000000000000000000000000000000000000000000000000000602082015250565b6000611316602383610c42565b9150611321826112ba565b604082019050919050565b6000602082019050818103600083015261134581611309565b9050919050565b7f45524332303a207472616e7366657220616d6f756e742065786365656473206260008201527f616c616e63650000000000000000000000000000000000000000000000000000602082015250565b60006113a8602683610c42565b91506113b38261134c565b604082019050919050565b600060208201905081810360008301526113d78161139b565b905091905056fea2646970667358221220bd227d8d06b02f005ccdb69bfb6d0b2b1f7f8e41fdaf93e8541b43adf4775d3864736f6c63430008180033",
  "linkReferences": {},
  "deployedLinkReferences": {}
}