{
  "_format": "hh-sol-artifact-1",
  "contractName": "Stinkat",
  "sourceName": "contracts/Stinkat.sol",
  "abi": [
    {
      "inputs": [],
      "stateMutability": "nonpayable",
      "type": "constructor"
    },
    {
      "anonymous": false,
      "inputs": [
        {
          "indexed": true,
          "internalType": "address",
          "name": "owner",
          "type": "address"
        },
        {
          "indexed": true,
          "internalType": "address",
          "name": "spender",
          "type": "address"
        },
        {
          "indexed": false,
          "internalType": "uint256",
          "name": "value",
          "type": "uint256"
        }
      ],
      "name": "Approval",
      "type": "event"
    },
    {
      "anonymous": false,
      "inputs": [
        {
          "indexed": true,
          "internalType": "address",
          "name": "previousOwner",
          "type": "address"
        },
        {
          "indexed": true,
          "internalType": "address",
          "name": "newOwner",
          "type": "address"
        }
      ],
      "name": "OwnershipTransferred",
      "type": "event"
    },
    {
      "anonymous": false,
      "inputs": [
        {
          "indexed": true,
          "internalType": "address",
          "name": "from",
          "type": "address"
        },
        {
          "indexed": true,
          "internalType": "address",
          "name": "to",
          "type": "address"
        },
        {
          "indexed": false,
          "internalType": "uint256",
          "name": "value",
          "type": "uint256"
        }
      ],
      "name": "Transfer",
      "type": "event"
    },
    {
      "inputs": [
        {
          "internalType": "address",
          "name": "owner",
          "type": "address"
        },
        {
          "internalType": "address",
          "name": "spender",
          "type": "address"
        }
      ],
      "name": "allowance",
      "outputs": [
        {
          "internalType": "uint256",
          "name": "",
          "type": "uint256"
        }
      ],
      "stateMutability": "view",
      "type": "function"
    },
    {
      "inputs": [
        {
          "internalType": "address",
          "name": "spender",
          "type": "address"
        },
        {
          "internalType": "uint256",
          "name": "amount",
          "type": "uint256"
        }
      ],
      "name": "approve",
      "outputs": [
        {
          "internalType": "bool",
          "name": "",
          "type": "bool"
        }
      ],
      "stateMutability": "nonpayable",
      "type": "function"
    },
    {
      "inputs": [
        {
          "internalType": "address",
          "name": "account",
          "type": "address"
        }
      ],
      "name": "balanceOf",
      "outputs": [
        {
          "internalType": "uint256",
          "name": "",
          "type": "uint256"
        }
      ],
      "stateMutability": "view",
      "type": "function"
    },
    {
      "inputs": [
        {
          "internalType": "uint256",
          "name": "amount",
          "type": "uint256"
        }
      ],
      "name": "burn",
      "outputs": [],
      "stateMutability": "nonpayable",
      "type": "function"
    },
    {
      "inputs": [
        {
          "internalType": "address",
          "name": "account",
          "type": "address"
        },
        {
          "internalType": "uint256",
          "name": "amount",
          "type": "uint256"
        }
      ],
      "name": "burnFrom",
      "outputs": [],
      "stateMutability": "nonpayable",
      "type": "function"
    },
    {
      "inputs": [],
      "name": "cancleLimit",
      "outputs": [],
      "stateMutability": "nonpayable",
      "type": "function"
    },
    {
      "inputs": [],
      "name": "decimals",
      "outputs": [
        {
          "internalType": "uint8",
          "name": "",
          "type": "uint8"
        }
      ],
      "stateMutability": "view",
      "type": "function"
    },
    {
      "inputs": [
        {
          "internalType": "address",
          "name": "spender",
          "type": "address"
        },
        {
          "internalType": "uint256",
          "name": "subtractedValue",
          "type": "uint256"
        }
      ],
      "name": "decreaseAllowance",
      "outputs": [
        {
          "internalType": "bool",
          "name": "",
          "type": "bool"
        }
      ],
      "stateMutability": "nonpayable",
      "type": "function"
    },
    {
      "inputs": [],
      "name": "dev",
      "outputs": [
        {
          "internalType": "address",
          "name": "",
          "type": "address"
        }
      ],
      "stateMutability": "view",
      "type": "function"
    },
    {
      "inputs": [
        {
          "internalType": "address",
          "name": "distributionWallet",
          "type": "address"
        }
      ],
      "name": "distributeTokens",
      "outputs": [],
      "stateMutability": "nonpayable",
      "type": "function"
    },
    {
      "inputs": [
        {
          "internalType": "address",
          "name": "spender",
          "type": "address"
        },
        {
          "internalType": "uint256",
          "name": "addedValue",
          "type": "uint256"
        }
      ],
      "name": "increaseAllowance",
      "outputs": [
        {
          "internalType": "bool",
          "name": "",
          "type": "bool"
        }
      ],
      "stateMutability": "nonpayable",
      "type": "function"
    },
    {
      "inputs": [],
      "name": "isLimit",
      "outputs": [
        {
          "internalType": "bool",
          "name": "",
          "type": "bool"
        }
      ],
      "stateMutability": "view",
      "type": "function"
    },
    {
      "inputs": [],
      "name": "name",
      "outputs": [
        {
          "internalType": "string",
          "name": "",
          "type": "string"
        }
      ],
      "stateMutability": "view",
      "type": "function"
    },
    {
      "inputs": [],
      "name": "owner",
      "outputs": [
        {
          "internalType": "address",
          "name": "",
          "type": "address"
        }
      ],
      "stateMutability": "view",
      "type": "function"
    },
    {
      "inputs": [],
      "name": "renounceOwnership",
      "outputs": [],
      "stateMutability": "nonpayable",
      "type": "function"
    },
    {
      "inputs": [],
      "name": "symbol",
      "outputs": [
        {
          "internalType": "string",
          "name": "",
          "type": "string"
        }
      ],
      "stateMutability": "view",
      "type": "function"
    },
    {
      "inputs": [],
      "name": "totalSupply",
      "outputs": [
        {
          "internalType": "uint256",
          "name": "",
          "type": "uint256"
        }
      ],
      "stateMutability": "view",
      "type": "function"
    },
    {
      "inputs": [
        {
          "internalType": "address",
          "name": "to",
          "type": "address"
        },
        {
          "internalType": "uint256",
          "name": "amount",
          "type": "uint256"
        }
      ],
      "name": "transfer",
      "outputs": [
        {
          "internalType": "bool",
          "name": "",
          "type": "bool"
        }
      ],
      "stateMutability": "nonpayable",
      "type": "function"
    },
    {
      "inputs": [
        {
          "internalType": "address",
          "name": "from",
          "type": "address"
        },
        {
          "internalType": "address",
          "name": "to",
          "type": "address"
        },
        {
          "internalType": "uint256",
          "name": "amount",
          "type": "uint256"
        }
      ],
      "name": "transferFrom",
      "outputs": [
        {
          "internalType": "bool",
          "name": "",
          "type": "bool"
        }
      ],
      "stateMutability": "nonpayable",
      "type": "function"
    },
    {
      "inputs": [
        {
          "internalType": "address",
          "name": "newOwner",
          "type": "address"
        }
      ],
      "name": "transferOwnership",
      "outputs": [],
      "stateMutability": "nonpayable",
      "type": "function"
    }
  ],
  "bytecode": "0x60806040526001600060146101000a81548160ff0219169083151502179055503480156200002c57600080fd5b506040518060400160405280600781526020017f5374696e6b6174000000000000000000000000000000000000000000000000008152506040518060400160405280600781526020017f5354494e4b4154000000000000000000000000000000000000000000000000008152508160049081620000aa919062000602565b508060059081620000bc919062000602565b50336000806101000a81548173ffffffffffffffffffffffffffffffffffffffff021916908373ffffffffffffffffffffffffffffffffffffffff16021790555050506200011f620001136200014260201b60201c565b6200014a60201b60201c565b6200013c336a084595161401484a0000006200021060201b60201c565b62000804565b600033905090565b6000600660009054906101000a900473ffffffffffffffffffffffffffffffffffffffff16905081600660006101000a81548173ffffffffffffffffffffffffffffffffffffffff021916908373ffffffffffffffffffffffffffffffffffffffff1602179055508173ffffffffffffffffffffffffffffffffffffffff168173ffffffffffffffffffffffffffffffffffffffff167f8be0079c531659141344cd1fd0a4f28419497f9722a3daafe3b4186f6b6457e060405160405180910390a35050565b600073ffffffffffffffffffffffffffffffffffffffff168273ffffffffffffffffffffffffffffffffffffffff160362000282576040517f08c379a000000000000000000000000000000000000000000000000000000000815260040162000279906200074a565b60405180910390fd5b62000296600083836200037e60201b60201c565b8060036000828254620002aa91906200079b565b9250508190555080600160008473ffffffffffffffffffffffffffffffffffffffff1673ffffffffffffffffffffffffffffffffffffffff168152602001908152602001600020600082825401925050819055508173ffffffffffffffffffffffffffffffffffffffff16600073ffffffffffffffffffffffffffffffffffffffff167fddf252ad1be2c89b69c2b068fc378daa952ba7f163c4a11628f55a4df523b3ef836040516200035e9190620007e7565b60405180910390a36200037a600083836200038360201b60201c565b5050565b505050565b505050565b600081519050919050565b7f4e487b7100000000000000000000000000000000000000000000000000000000600052604160045260246000fd5b7f4e487b7100000000000000000000000000000000000000000000000000000000600052602260045260246000fd5b600060028204905060018216806200040a57607f821691505b60208210810362000420576200041f620003c2565b5b50919050565b60008190508160005260206000209050919050565b60006020601f8301049050919050565b600082821b905092915050565b6000600883026200048a7fffffffffffffffffffffffffffffffffffffffffffffffffffffffffffffffff826200044b565b6200049686836200044b565b95508019841693508086168417925050509392505050565b6000819050919050565b6000819050919050565b6000620004e3620004dd620004d784620004ae565b620004b8565b620004ae565b9050919050565b6000819050919050565b620004ff83620004c2565b620005176200050e82620004ea565b84845462000458565b825550505050565b600090565b6200052e6200051f565b6200053b818484620004f4565b505050565b5b8181101562000563576200055760008262000524565b60018101905062000541565b5050565b601f821115620005b2576200057c8162000426565b62000587846200043b565b8101602085101562000597578190505b620005af620005a6856200043b565b83018262000540565b50505b505050565b600082821c905092915050565b6000620005d760001984600802620005b7565b1980831691505092915050565b6000620005f28383620005c4565b9150826002028217905092915050565b6200060d8262000388565b67ffffffffffffffff81111562000629576200062862000393565b5b620006358254620003f1565b6200064282828562000567565b600060209050601f8311600181146200067a576000841562000665578287015190505b620006718582620005e4565b865550620006e1565b601f1984166200068a8662000426565b60005b82811015620006b4578489015182556001820191506020850194506020810190506200068d565b86831015620006d45784890151620006d0601f891682620005c4565b8355505b6001600288020188555050505b505050505050565b600082825260208201905092915050565b7f45524332303a206d696e7420746f20746865207a65726f206164647265737300600082015250565b600062000732601f83620006e9565b91506200073f82620006fa565b602082019050919050565b60006020820190508181036000830152620007658162000723565b9050919050565b7f4e487b7100000000000000000000000000000000000000000000000000000000600052601160045260246000fd5b6000620007a882620004ae565b9150620007b583620004ae565b9250828201905080821115620007d057620007cf6200076c565b5b92915050565b620007e181620004ae565b82525050565b6000602082019050620007fe6000830184620007d6565b92915050565b611c2280620008146000396000f3fe608060405234801561001057600080fd5b506004361061012c5760003560e01c8063715018a6116100ad578063a457c2d711610071578063a457c2d71461030f578063a9059cbb1461033f578063b1d17c981461036f578063dd62ed3e1461038b578063f2fde38b146103bb5761012c565b8063715018a61461028f57806379cc6790146102995780638da5cb5b146102b557806391cca3db146102d357806395d89b41146102f15761012c565b80632f685022116100f45780632f685022146101eb578063313ce567146101f5578063395093511461021357806342966c681461024357806370a082311461025f5761012c565b806306fdde0314610131578063095ea7b31461014f57806318160ddd1461017f57806323b872dd1461019d57806327578055146101cd575b600080fd5b6101396103d7565b604051610146919061121a565b60405180910390f35b610169600480360381019061016491906112d5565b610469565b6040516101769190611330565b60405180910390f35b61018761048c565b604051610194919061135a565b60405180910390f35b6101b760048036038101906101b29190611375565b610496565b6040516101c49190611330565b60405180910390f35b6101d56104c5565b6040516101e29190611330565b60405180910390f35b6101f36104d8565b005b6101fd61054c565b60405161020a91906113e4565b60405180910390f35b61022d600480360381019061022891906112d5565b610555565b60405161023a9190611330565b60405180910390f35b61025d600480360381019061025891906113ff565b61058c565b005b6102796004803603810190610274919061142c565b6105a0565b604051610286919061135a565b60405180910390f35b6102976105e9565b005b6102b360048036038101906102ae91906112d5565b6105fd565b005b6102bd61061d565b6040516102ca9190611468565b60405180910390f35b6102db610647565b6040516102e89190611468565b60405180910390f35b6102f961066b565b604051610306919061121a565b60405180910390f35b610329600480360381019061032491906112d5565b6106fd565b6040516103369190611330565b60405180910390f35b610359600480360381019061035491906112d5565b610774565b6040516103669190611330565b60405180910390f35b6103896004803603810190610384919061142c565b610797565b005b6103a560048036038101906103a09190611483565b610808565b6040516103b2919061135a565b60405180910390f35b6103d560048036038101906103d0919061142c565b61088f565b005b6060600480546103e6906114f2565b80601f0160208091040260200160405190810160405280929190818152602001828054610412906114f2565b801561045f5780601f106104345761010080835404028352916020019161045f565b820191906000526020600020905b81548152906001019060200180831161044257829003601f168201915b5050505050905090565b600080610474610912565b905061048181858561091a565b600191505092915050565b6000600354905090565b6000806104a1610912565b90506104ae858285610ae3565b6104b9858585610b6f565b60019150509392505050565b600060149054906101000a900460ff1681565b60008054906101000a900473ffffffffffffffffffffffffffffffffffffffff1673ffffffffffffffffffffffffffffffffffffffff163373ffffffffffffffffffffffffffffffffffffffff161461053057600080fd5b60008060146101000a81548160ff021916908315150217905550565b60006012905090565b600080610560610912565b90506105818185856105728589610808565b61057c9190611552565b61091a565b600191505092915050565b61059d610597610912565b82610e6d565b50565b6000600160008373ffffffffffffffffffffffffffffffffffffffff1673ffffffffffffffffffffffffffffffffffffffff168152602001908152602001600020549050919050565b6105f161103c565b6105fb60006110ba565b565b61060f82610609610912565b83610ae3565b6106198282610e6d565b5050565b6000600660009054906101000a900473ffffffffffffffffffffffffffffffffffffffff16905090565b60008054906101000a900473ffffffffffffffffffffffffffffffffffffffff1681565b60606005805461067a906114f2565b80601f01602080910402602001604051908101604052809291908181526020018280546106a6906114f2565b80156106f35780601f106106c8576101008083540402835291602001916106f3565b820191906000526020600020905b8154815290600101906020018083116106d657829003601f168201915b5050505050905090565b600080610708610912565b905060006107168286610808565b90508381101561075b576040517f08c379a0000000000000000000000000000000000000000000000000000000008152600401610752906115f8565b60405180910390fd5b610768828686840361091a565b60019250505092915050565b60008061077f610912565b905061078c818585610b6f565b600191505092915050565b61079f61103c565b60006107aa336105a0565b90506a084595161401484a00000081146107f9576040517f08c379a00000000000000000000000000000000000000000000000000000000081526004016107f090611664565b60405180910390fd5b610804338383610b6f565b5050565b6000600260008473ffffffffffffffffffffffffffffffffffffffff1673ffffffffffffffffffffffffffffffffffffffff16815260200190815260200160002060008373ffffffffffffffffffffffffffffffffffffffff1673ffffffffffffffffffffffffffffffffffffffff16815260200190815260200160002054905092915050565b61089761103c565b600073ffffffffffffffffffffffffffffffffffffffff168173ffffffffffffffffffffffffffffffffffffffff1603610906576040517f08c379a00000000000000000000000000000000000000000000000000000000081526004016108fd906116f6565b60405180910390fd5b61090f816110ba565b50565b600033905090565b600073ffffffffffffffffffffffffffffffffffffffff168373ffffffffffffffffffffffffffffffffffffffff1603610989576040517f08c379a000000000000000000000000000000000000000000000000000000000815260040161098090611788565b60405180910390fd5b600073ffffffffffffffffffffffffffffffffffffffff168273ffffffffffffffffffffffffffffffffffffffff16036109f8576040517f08c379a00000000000000000000000000000000000000000000000000000000081526004016109ef9061181a565b60405180910390fd5b80600260008573ffffffffffffffffffffffffffffffffffffffff1673ffffffffffffffffffffffffffffffffffffffff16815260200190815260200160002060008473ffffffffffffffffffffffffffffffffffffffff1673ffffffffffffffffffffffffffffffffffffffff168152602001908152602001600020819055508173ffffffffffffffffffffffffffffffffffffffff168373ffffffffffffffffffffffffffffffffffffffff167f8c5be1e5ebec7d5bd14f71427d1e84f3dd0314c0f7b2291e5b200ac8c7c3b92583604051610ad6919061135a565b60405180910390a3505050565b6000610aef8484610808565b90507fffffffffffffffffffffffffffffffffffffffffffffffffffffffffffffffff8114610b695781811015610b5b576040517f08c379a0000000000000000000000000000000000000000000000000000000008152600401610b5290611886565b60405180910390fd5b610b68848484840361091a565b5b50505050565b600073ffffffffffffffffffffffffffffffffffffffff168373ffffffffffffffffffffffffffffffffffffffff1603610bde576040517f08c379a0000000000000000000000000000000000000000000000000000000008152600401610bd590611918565b60405180910390fd5b600073ffffffffffffffffffffffffffffffffffffffff168273ffffffffffffffffffffffffffffffffffffffff1603610c4d576040517f08c379a0000000000000000000000000000000000000000000000000000000008152600401610c44906119aa565b60405180910390fd5b600060149054906101000a900460ff168015610cb5575060008054906101000a900473ffffffffffffffffffffffffffffffffffffffff1673ffffffffffffffffffffffffffffffffffffffff168373ffffffffffffffffffffffffffffffffffffffff1614155b15610cd257692a5a058fc295ed000000811115610cd157600080fd5b5b610cdd838383611180565b6000600160008573ffffffffffffffffffffffffffffffffffffffff1673ffffffffffffffffffffffffffffffffffffffff16815260200190815260200160002054905081811015610d64576040517f08c379a0000000000000000000000000000000000000000000000000000000008152600401610d5b90611a3c565b60405180910390fd5b818103600160008673ffffffffffffffffffffffffffffffffffffffff1673ffffffffffffffffffffffffffffffffffffffff1681526020019081526020016000208190555081600160008573ffffffffffffffffffffffffffffffffffffffff1673ffffffffffffffffffffffffffffffffffffffff168152602001908152602001600020600082825401925050819055508273ffffffffffffffffffffffffffffffffffffffff168473ffffffffffffffffffffffffffffffffffffffff167fddf252ad1be2c89b69c2b068fc378daa952ba7f163c4a11628f55a4df523b3ef84604051610e54919061135a565b60405180910390a3610e67848484611185565b50505050565b600073ffffffffffffffffffffffffffffffffffffffff168273ffffffffffffffffffffffffffffffffffffffff1603610edc576040517f08c379a0000000000000000000000000000000000000000000000000000000008152600401610ed390611ace565b60405180910390fd5b610ee882600083611180565b6000600160008473ffffffffffffffffffffffffffffffffffffffff1673ffffffffffffffffffffffffffffffffffffffff16815260200190815260200160002054905081811015610f6f576040517f08c379a0000000000000000000000000000000000000000000000000000000008152600401610f6690611b60565b60405180910390fd5b818103600160008573ffffffffffffffffffffffffffffffffffffffff1673ffffffffffffffffffffffffffffffffffffffff1681526020019081526020016000208190555081600360008282540392505081905550600073ffffffffffffffffffffffffffffffffffffffff168373ffffffffffffffffffffffffffffffffffffffff167fddf252ad1be2c89b69c2b068fc378daa952ba7f163c4a11628f55a4df523b3ef84604051611023919061135a565b60405180910390a361103783600084611185565b505050565b611044610912565b73ffffffffffffffffffffffffffffffffffffffff1661106261061d565b73ffffffffffffffffffffffffffffffffffffffff16146110b8576040517f08c379a00000000000000000000000000000000000000000000000000000000081526004016110af90611bcc565b60405180910390fd5b565b6000600660009054906101000a900473ffffffffffffffffffffffffffffffffffffffff16905081600660006101000a81548173ffffffffffffffffffffffffffffffffffffffff021916908373ffffffffffffffffffffffffffffffffffffffff1602179055508173ffffffffffffffffffffffffffffffffffffffff168173ffffffffffffffffffffffffffffffffffffffff167f8be0079c531659141344cd1fd0a4f28419497f9722a3daafe3b4186f6b6457e060405160405180910390a35050565b505050565b505050565b600081519050919050565b600082825260208201905092915050565b60005b838110156111c45780820151818401526020810190506111a9565b60008484015250505050565b6000601f19601f8301169050919050565b60006111ec8261118a565b6111f68185611195565b93506112068185602086016111a6565b61120f816111d0565b840191505092915050565b6000602082019050818103600083015261123481846111e1565b905092915050565b600080fd5b600073ffffffffffffffffffffffffffffffffffffffff82169050919050565b600061126c82611241565b9050919050565b61127c81611261565b811461128757600080fd5b50565b60008135905061129981611273565b92915050565b6000819050919050565b6112b28161129f565b81146112bd57600080fd5b50565b6000813590506112cf816112a9565b92915050565b600080604083850312156112ec576112eb61123c565b5b60006112fa8582860161128a565b925050602061130b858286016112c0565b9150509250929050565b60008115159050919050565b61132a81611315565b82525050565b60006020820190506113456000830184611321565b92915050565b6113548161129f565b82525050565b600060208201905061136f600083018461134b565b92915050565b60008060006060848603121561138e5761138d61123c565b5b600061139c8682870161128a565b93505060206113ad8682870161128a565b92505060406113be868287016112c0565b9150509250925092565b600060ff82169050919050565b6113de816113c8565b82525050565b60006020820190506113f960008301846113d5565b92915050565b6000602082840312156114155761141461123c565b5b6000611423848285016112c0565b91505092915050565b6000602082840312156114425761144161123c565b5b60006114508482850161128a565b91505092915050565b61146281611261565b82525050565b600060208201905061147d6000830184611459565b92915050565b6000806040838503121561149a5761149961123c565b5b60006114a88582860161128a565b92505060206114b98582860161128a565b9150509250929050565b7f4e487b7100000000000000000000000000000000000000000000000000000000600052602260045260246000fd5b6000600282049050600182168061150a57607f821691505b60208210810361151d5761151c6114c3565b5b50919050565b7f4e487b7100000000000000000000000000000000000000000000000000000000600052601160045260246000fd5b600061155d8261129f565b91506115688361129f565b92508282019050808211156115805761157f611523565b5b92915050565b7f45524332303a2064656372656173656420616c6c6f77616e63652062656c6f7760008201527f207a65726f000000000000000000000000000000000000000000000000000000602082015250565b60006115e2602583611195565b91506115ed82611586565b604082019050919050565b60006020820190508181036000830152611611816115d5565b9050919050565b7f546f6b656e7320616c7265616479206469737472696275746564000000000000600082015250565b600061164e601a83611195565b915061165982611618565b602082019050919050565b6000602082019050818103600083015261167d81611641565b9050919050565b7f4f776e61626c653a206e6577206f776e657220697320746865207a65726f206160008201527f6464726573730000000000000000000000000000000000000000000000000000602082015250565b60006116e0602683611195565b91506116eb82611684565b604082019050919050565b6000602082019050818103600083015261170f816116d3565b9050919050565b7f45524332303a20617070726f76652066726f6d20746865207a65726f2061646460008201527f7265737300000000000000000000000000000000000000000000000000000000602082015250565b6000611772602483611195565b915061177d82611716565b604082019050919050565b600060208201905081810360008301526117a181611765565b9050919050565b7f45524332303a20617070726f766520746f20746865207a65726f20616464726560008201527f7373000000000000000000000000000000000000000000000000000000000000602082015250565b6000611804602283611195565b915061180f826117a8565b604082019050919050565b60006020820190508181036000830152611833816117f7565b9050919050565b7f45524332303a20696e73756666696369656e7420616c6c6f77616e6365000000600082015250565b6000611870601d83611195565b915061187b8261183a565b602082019050919050565b6000602082019050818103600083015261189f81611863565b9050919050565b7f45524332303a207472616e736665722066726f6d20746865207a65726f20616460008201527f6472657373000000000000000000000000000000000000000000000000000000602082015250565b6000611902602583611195565b915061190d826118a6565b604082019050919050565b60006020820190508181036000830152611931816118f5565b9050919050565b7f45524332303a207472616e7366657220746f20746865207a65726f206164647260008201527f6573730000000000000000000000000000000000000000000000000000000000602082015250565b6000611994602383611195565b915061199f82611938565b604082019050919050565b600060208201905081810360008301526119c381611987565b9050919050565b7f45524332303a207472616e7366657220616d6f756e742065786365656473206260008201527f616c616e63650000000000000000000000000000000000000000000000000000602082015250565b6000611a26602683611195565b9150611a31826119ca565b604082019050919050565b60006020820190508181036000830152611a5581611a19565b9050919050565b7f45524332303a206275726e2066726f6d20746865207a65726f2061646472657360008201527f7300000000000000000000000000000000000000000000000000000000000000602082015250565b6000611ab8602183611195565b9150611ac382611a5c565b604082019050919050565b60006020820190508181036000830152611ae781611aab565b9050919050565b7f45524332303a206275726e20616d6f756e7420657863656564732062616c616e60008201527f6365000000000000000000000000000000000000000000000000000000000000602082015250565b6000611b4a602283611195565b9150611b5582611aee565b604082019050919050565b60006020820190508181036000830152611b7981611b3d565b9050919050565b7f4f776e61626c653a2063616c6c6572206973206e6f7420746865206f776e6572600082015250565b6000611bb6602083611195565b9150611bc182611b80565b602082019050919050565b60006020820190508181036000830152611be581611ba9565b905091905056fea264697066735822122063728d9299366035f16a7b449607af19e98a4ed4b98c391d8f4c3443616de4fd64736f6c63430008180033",
  "linkReferences": {},
  "deployedLinkReferences": {}
}